:060000000C943B000C947F
:1000060000000C9400000C9400000C9400000C946A
:1000160000000C9400000C9400000C9400000C945A
:1000260000000C9400000C9400000C9400000C944A
:1000360000000C9400000C9400000C9400000C943A
:1000460000000C9400000C9400000C9400003F0685
:100056005B4F666D7D077F6F80313179400070E0C0
:10006600B0D00F006002540004006F02640000006C
:10007600F894EE27ECBBF1E0FBBFEBBFE5BFF8E180
:10008600F1BDE1BD8DE0A2E0BB27ED938A95E9F7CE
:1000960080E098E0A0E6ED930197E9F7E8E6F0E066
:1000A60085919591009761F0A591B5910590159070
:1000B600BF01F00105900D920197E1F7FB01F0CF2A
:1000C600EFE5EDBFE8E0EEBFC0E6D2E00C94CE006F
:1000D60044245524E3E0F0E04E165F0674F4F20182
:1000E600E559FD4FE081E5BBAFE6B2E0A40DB51DD5
:1000F60061D0F20131962F01EDCFE0EFE8BB089514
:10010600FF92BA93AA930E942501E1E0FE2E40E0F9
:1001160050E00E811F81AE81BF81A031E7E2BE07AC
:100126001CF4AF81AA2312F4D3DF30C000240016DA
:10013600010611F4F0FE2AC0D801EAE0F0E00E94C0
:1001460012018F01F801AAE0B0E00E94FA00AE8128
:10015600BF81AE1BBF0B9D01AE81BF81EAE0F0E01F
:100166000E941201EE83FF83A0E6B2E0A20FB31F46
:10017600EC91E5BBAFE6B2E0A40FB51F1BD0E0EFF4
:10018600E8BB4F5F5F4FE894F0F8D0CF0E942C0198
:100196002896FF900895EFEFE4BBEFE4E5BBE0EFB0
:1001A600E7BBA4EAB4E0ACDFA3E1B0E00E94E40060
:1001B600F8CFFFCFEC91E8BB88EE93E00197F1F71B
:1001C6000895109639F080ED97E00197F1F7A8951C
:1001D6001197C9F70895F195E195F0400895FA9FB2
:1001E600F02DEB9FF00DEA9FE02DF10D08951CD048
:1001F600F6DF0EF4F0DF08950024112490E1AA0F33
:10020600BB1F001C111C0E1A1F0A18F40E0E1F1E0F
:1002160001C0A1609A9599F7FD01D001089504D017
:10022600EBDF0EF4D8DF0895E894F7FF02C0D3DFC2
:100236006894B7FF06C0A095B095119600F8039490
:1002460000FA08955A934A933A932A931A930A9373
:1002560008955D814C813B812A8119810881089529
:00000001FF
